:0813EF00C2A2000000D2A222FC
:0913DD00EF6003D2A022C2A0229D
:0913E600EF6003D2A122C2A12292
:02128200AE07B5
:10128400E4FDFCE4FF1213DDEE5480C41313135485
:1012940001FF1213E600EE25E0FE7F011213DD00CC
:0F12A4001F1213DD0DBD00010CED64084C70D45A
:0112B3002218
:031405000213EFE0
:1010FE004C6561726E20616E642074656163682058
:10110E007468726F756768206D616B696E670057E2
:10111E00656C636F6D6520746F20726173706265AC
:10112E00727279706920776F726C64210049324354
:10113E00204D4F44450054656D703A333043005393
:10114E006174757264617900576561746865723A8D
:10115E00436C65617200202020202031303A3330FC
:01116E000080
:1005F3001210777BFF7A1079FEE4FDFCFFFE1211E7
:100603006F7BFF7A11791DE4FDFC7F04FE12116FED
:100613007FE87E031213301211D27BFF7A11793BEC
:10062300E4FDFCFFFE12116F7BFF7A11793BE4FDC1
:10063300FC7F02FE12116F7BFF7A11793BE4FDFC14
:100643007F04FE12116F7BFF7A11793BE4FDFC7F7F
:1006530006FE12116F7FE87E031213301211D27B54
:100663001E7A007D1F7C007F1F7E00120DF17B141C
:100673007A007D1F7C007F1F7E00120DF17B0A7ABA
:10068300007D1F7C007F1F7E00120DF17B1E7A0010
:100693007D1F7C007F3F7E00120DF17B147A007D6D
:1006A3001F7C007F3F7E00120DF17B0A7A007D1FC5
:1006B3007C007F3F7E00120DF17B1E7A007D1F7C44
:1006C300007F5E7E00120DF17B147A007D1F7C009B
:1006D3007F5E7E00120DF17B0A7A007D1F7C007F16
:1006E3005E7E00120DF11211D275160075171F7B75
:1006F3000A7A007D1F7C00E4FFFE120B6C75160066
:100703007517377B147A007D1F7C007F0A7E0012E9
:100713000B6C75160075170A7B1E7A007D377C00FB
:100723007F147E00120B6C75160075171F7B287AD9
:10073300007D0A7C007F1E7E00120B6C751600750F
:10074300171F7B327A007D1F7C007F287E00120BEF
:100753006C75160075171F7B507A007D1F7C007F18
:10076300327E00120B6C7516007517377B5A7A00B0
:100773007D1F7C007F507E00120B6C751600751771
:100783000A7B647A007D377C007F5A7E00120B6CF3
:1007930075160075171F7B6E7A007D0A7C007F64D7
:1007A3007E00120B6C75160075171F7B7F7A007D18
:1007B3001F7C007F6E7E00120B6C1211D2E4F508D1
:1007C300F509F50C750D7FF50AF50BF50E750F3F61
:1007D300D3E50B943FE50A6480948050047F018045
:1007E300027F00EF6037850E16850F17AB0DAA0C3D
:1007F300AD0BAC0AAF09AE08120B6C0509E5097025
:10080300020508050BE50B7002050AE50D150D70D1
:1008130002150CE50F150F70B7150E80B37FC87E58
:10082300001213301211D2E4F508F509F50AF50B9D
:10083300F50CF50DF50E750F3FC3E50D947FE50C33
:1008430064809480502D850E16850F17AB0DAA0C6E
:10085300AD0BAC0AAF09AE08120B6C74042509F595
:1008630009E43508F5087404250DF50DE4350CF598
:100873000C80C67FC87E001213301211D2E4F50833
:10088300F509F50A750B3FF50C750D7FF50E750F20
:100893003FD3E50B9400E50A64809480402F850ED6
:1008A30016850F17AB0DAA0CAD0BAC0AAF09AE083A
:1008B300120B6C74FC250BF50B74FF350AF50A74E7
:1008C300FC250FF50F74FF350EF50E80C47FC87E2F
:1008D300001213301211D2E4F508F509F50AF50BED
:1008E300F50CF50DF50EF50FC3E50D943FE50C641E
:1008F300809480502A850E16850F17AB0DAA0CAD78
:100903000BAC0AAF09AE08120B6C050BE50B7002BA
:10091300050A7402250DF50DE4350CF50C80C97F2D
:10092300C87E001213301211D27BFF7A117944E48E
:10093300FDFCFFFE12116F7BFF7A11794DE4FDFC84
:100943007F02FE12116F7BFF7A117956E4FDFC7F63
:1009530004FE12116F7BFF7A117964E4FDFC7F06BC
:10096300FE12116F7FD07E071213301211D20205CF
:01097300F68D
:1000030000000000000000000000000000000000ED
:10001300000000F800000000000000333000000082
:1000230000100C06100C0600000000000000000089
:1000330040C07840C0784000043F04043F040400FB
:10004300007088FC08300000001820FF211E00000B
:10005300F008F000E018000000211C031E211E0020
:1000630000F00888700000001E21232419272110A6
:1000730010160E0000000000000000000000000049
:10008300000000E0180402000000000718204000F0
:1000930000020418E00000000040201807000000E0
:1000A300404080F0804040000202010F0102020044
:1000B300000000F0000000000101011F0101010028
:1000C300000000000000000080B07000000000008D
:1000D3000000000000000000000101010101010116
:1000E30000000000000000000030300000000000AD
:1000F3000000000080601804006018060100000082
:1001030000E010080810E000000F102020100F007E
:10011300001010F8000000000020203F2020000005
:10012300007008080888700000302824222130005D
:1001330000300888884830000018202020110E0065
:100143000000C02010F8000000070424243F24000E
:1001530000F80888880808000019212020110E00E3
:1001630000E0108888180000000F112020110E00F5
:1001730000380808C83808000000003F00000000ED
:100183000070880808887000001C222121221C00AE
:1001930000E010080810E0000000312222110F00D7
:1001A300000000C0C000000000000030300000006C
:1001B30000000080000000000000806000000000DC
:1001C30000008040201008000001020408102000F5
:1001D3004040404040404000040404040404040040
:1001E30000081020408000000020100804020100D5
:1001F300007048080808F0000000003036010000D5
:10020300C030C828E810E0000718272423140B0087
:100213000000C038E0000000203C23020227382001
:1002230008F8888888700000203F202020110E00E5
:10023300C0300808080838000718202020100800DC
:1002430008F808080810E000203F202020100F00C5
:1002530008F88888E8081000203F20202320180091
:1002630008F88888E8081000203F200003000000F9
:10027300C03008080838000007182020221E02009A
:1002830008F808000008F808203F210101213F2059
:10029300000808F8080800000020203F2020000084
:1002A30000000808F8080800C08080807F00000074
:1002B30008F888C028180800203F200126382000AD
:1002C30008F8080000000000203F20202020300014
:1002D30008F8F800F8F80800203F003F003F20002E
:1002E30008F830C00008F808203F200007183F0036
:1002F300E01008080810E0000F10202020100F0065
:1003030008F808080808F000203F21010101000057
:10031300E01008080810E0000F18242438504F009C
:1003230008F8888888887000203F2000030C30205C
:1003330000708808080838000038202121221C009A
:10034300180808F8080818000000203F20000000E3
:1003530008F808000008F808001F202020201F00CC
:100363000878880000C83808000007380E0100002C
:10037300F80800F80008F800033C0700073C0300F6
:10038300081868808068180820302C03032C30205C
:100393000838C800C83808000000203F20000000CB
:1003A30010080808C8380800203826212020180023
:1003B300000000FE020202000000007F40404000F7
:1003C300000C30C000000000000000010638C0002F
:1003D30000020202FE000000004040407F000000D7
:1003E30000000402020204000000000000000000FC
:1003F30000000000000000008080808080808080FA
:1004030000020204000000000000000000000000E1
:1004130000008080808000000019242222223F20D7
:1004230008F8008080000000003F112020110E001A
:100433000000008080800000000E112020201100A9
:10044300000000808088F800000E112020103F205B
:100453000000808080800000001F222222221300DF
:10046300008080F0888888180020203F202000002A
:100473000000808080808000006B949494936000DF
:1004830008F8008080800000203F210000203F20EA
:1004930000809898000000000020203F20200000EA
:1004A300000000809898000000C08080807F0000DA
:1004B30008F8000080808000203F24022D302000B7
:1004C300000808F8000000000020203F2020000062
:1004D3008080808080808000203F20003F20003F7C
:1004E3008080008080800000203F210000203F208A
:1004F3000000808080800000001F202020201F003B
:10050300808000808000000080FFA12020110E0069
:100513000000008080808000000E112020A0FF805A
:10052300808080008080800020203F212000010007
:10053300000080808080800000332424242419005C
:10054300008080E0808000000000001F2020000069
:100553008080000000808000001F202020103F20AA
:10056300808080000080808000010E30080601003A
:1005730080800080008080800F300C030C300F00DF
:1005830000808000808080000020312E0E3120000A
:10059300808080000080808080818E70180601003A
:1005A30000808080808080000021302C2221300058
:1005B30000000000807C020200000000003F404079
:1005C30000000000FF00000000000000FF0000002A
:1005D3000002027C800000000040403F0000000059
:1005E30000060101020204040000000000000000F4
:101387008F341213B7E4FF1213511213FEAF341246
:0813970013511213FE0213F7BB
:10139F008F321213B77F401213511213FEAF321256
:0813AF0013511213FE0213F7A3
:1012E2008C328D33EF24B0FF121387E533540FFF96
:1012F200121387E533AE327804CEA2E713CE13D8A9
:07130200F84410FF021387FD
:1011D200E4F510F511E4FDFCAF11AE101212E2E4D9
:1011E200F512F513E4FF12139F0513E513700205C0
:1011F20012C39480E5126480948040E80511E511E1
:0F12020070020510C39408E5106480948040C604
:0112110022BA
:1012B4008E108F117F20121387E510701BE5111417
:1012C400600E14601314600C2403700CE4FF800A95
:0E12D4007F0180067F0380027F0212138722B3
:101077007FAE121387E4FF1213877F101213877F47
:10108700401213877FB01213877F811213877FFF68
:101097001213877FA11213877FA61213877FC912A6
:1010A70013877FA81213877F3F1213877FD31213EB
:1010B70087E4FF1213877FD51213877F8012138768
:1010C7007FD91213877FF11213877FDA1213877F75
:1010D700121213877FDB1213877F401213877F8DCE
:1010E7001213877F141213877FAF1213871211D23F
:0710F7007F027E000212B42B
:080EA3008E198F1A8C1B8D1CA7
:100EAB00E4F51DF51EAF03EF3395E0FEEFC4F854E8
:100EBB000FC868FFEEC454F048FE74032FF974FE9C
:100ECB003E751FFFF5208921AF1AAE191212E2E40D
:100EDB00F51DF51EAB1FAA20A921851E82851D833A
:100EEB00120A6AFF12139F051EE51E7002051DC331
:100EFB009408E51D6480948040DAE51A2401FFE430
:100F0B003519FEAD1CAC1B1212E2E4F51DF51EAB40
:100F1B001FAA20A921E51E2408FFE4351D8F82F5A9
:100F2B0083120A6AFF12139F051EE51E7002051D30
:0B0F3B00C39408E51D6480948040D43E
:010F46002288
:0E116F008E108F118C128D138B148A15891619
:10117D00E4F517F518AB14AA15A91685188285176D
:10118D0083120A6AFB603DAD13AC12AF11AE1012A3
:10119D000EA374082513F513E43512F512D3E513D8
:1011AD00947FE512648094804010E4F512F5137479
:1011BD00022511F511E43510F5100518E51870B577
:0411CD00051780B1D1
:0111D10022FB
:10136E00E4FD7C01C374079FFFE49EFEECA8070812
:08137E008002C333D8FC4DFFCF
:011386002244
:08121200AB05AA048F828E8354
:10121A007C007D08AF03AE02120A97C374079FF5DC
:10122A0033E49EF532858334858235AE02AF037C82
:10123A00007D08120A978C368D377B007A00793246
:01124A002281
:10124B00FEC3E4951DFDE4951CFCE5212DFDE52079
:02125B003CFC59
:10125D00121212782C7C007D007E007F06120A444B
:10126D00AD2FAC2EAF2DAE2C1212E2AF31AE30122F
:05127D00136E02139F37
:100FEA008B2C8A2D892EC003C002C001120ACDFFA4
:100FFA00AEF0AB2FAA30A931120ACDFDEE65F0FE94
:10100A00EF6DFFD001D002D003EE8FF0120AF8ABD9
:10101A002FAA30A931C003C002C001120ACDFFAE07
:10102A00F0AB2CAA2DA92E120ACDFDEE65F0FEEF2B
:10103A006DFFD001D002D003EE8FF0120AF8AB2C6C
:10104A00AA2DA92EC003C002C001120ACDFFAEF01C
:10105A00AB2FAA30A931120ACDFDEE65F0FEEF6D75
:0D106A00FFD001D002D003EE8FF0020AF893
:0C0B6C008E108F118C128D138A148B15C3
:100B7800C3E5159511FFE5149510FE1213D18E18D3
:100B88008F19C3E5179513FFE5169512FE1213D1B9
:100B98008E1A8F1BE4F51CF51DC3E519951BE51A84
:100BA8006480F8E518648098503C751C00751D0138
:100BB800752F007530007531127B007A007910129C
:100BC8000FEA752F007530007531167B007A0079B1
:100BD80014120FEA752F0075300075311A7B007AF0
:100BE800007918120FEAC3E5159511FFE514951061
:100BF800FED3EF9400EE6480948040067E007F016F
:100C080080047EFF7FFF8E1E8F1FC3E5179513FF9D
:100C1800E5169512FED3EF9400EE648094804006AA
:100C28007E007F0180047EFF7FFF8E208F2185104C
:100C380022851123851224851325E51B25E0FDE572
:100C48001A33FCF5268D27C3E51B9519FFE51A9580
:100C580018FEEF25E0F529EE33F528C3ED9519F5D3
:100C68002BEC9518F52AE51D451C6053E523651501
:100C78007004E52265147003020D17C3E52A648029
:100C88009480500AE527252BF52BE5268014E521CD
:100C98002525F525E5203524F524E529252BF52BF3
:100CA800E528352AF52AAD23AC22AF25AE24121249
:100CB8005DE51F2523F523E51E3522F52280ADE5E8
:100CC8002365157004E52265146044C3E52A648031
:100CD8009480500AE527252BF52BE5268014E5217D
:100CE8002525F525E5203524F524E529252BF52BA3
:100CF800E528352AF52AAD25AC24AF23AE221212F9
:0F0D08005DE51F2523F523E51E3522F52280B07A
:010D170022B9
:0A0D1800AB39AA38AD3FAC3EAE3C4B
:100D22008E1A8F1B8C1C8D1D8A1E8B1FE51B251F87
:100D3200FFE51A351EFEE51D2521FDE51C3520FCCB
:100D420012125DE51D251FFFE51C351EFEE51B2564
:100D520021FDE51A3520FC12125DE51B251FFFE57A
:100D62001A351E12124BC3E4951DFFE4951CFEE5D5
:100D72001F2FFFE51E3EFEE51B2521FDE51A35204E
:100D8200FC12125DC3E4951BFFE4951AFEE51F2FCA
:100D9200FFE51E3EFEE51D2521FDE51C3520FC126A
:100DA200125DE51D251FFFE51C351EFEC3E4951BE4
:100DB200FDE4951A121254C3E4951BFFE4951AFE42
:100DC200E51F2FFFE51E3E12124BC3E4951DFFE403
:100DD200951CFEE51F2FFFE51E3EFEC3E4951BFD9D
:0F0DE200E4951AFCE5212DFDE5203CFC02125D95
:080F47008E388F398C3A8D3B86
:100F4F00E4F53CF53D8A3E8B3FC3049BF541E49AA3
:100F5F00F540853A20853B21AF3D120D18D3E53D75
:100F6F00953FE53E6480F8E53C648098506CC3E59E
:100F7F004064809480501CE53D25E0FFE53C33FE46
:100F8F00EF2403FFE43EFEEF2541F541EE3540F53A
:100F9F0040802BC3E53D953FFFE53C953EFEEF2599
:100FAF00E0FFEE33FEEF2405FFE43EFEEF2541F5B3
:100FBF0041EE3540F540E53F153F7002153E053DCA
:100FCF00E53D7002053C853A20853B21FF120D1847
:0A0FDF007F0A7E00121330020F6C2F
:010FE90022E5
:080DF1008E108F118C128D137E
:100DF900E4F514F5158A168B17EB25E0FFEA33FEA7
:100E0900C374039FF519E49EF518D3E5159517E505
:100E1900166480F8E514648098507E851220851345
:100E290021AB11AA10AD17AC16AF15AE14120D22D5
:100E3900C3E51864809480402EE5159517FFE514E5
:100E49009516FEEF7802C333CE33CED8F9240AFFC4
:100E5900E43EFEEF2519F519EE3518F518E51715D5
:100E69001770211516801DE515AE147802C333CE0F
:100E790033CED8F92406FFE43EFEEF2519F519EE25
:100E89003518F5187F0A7E001213300515E515602F
:090E990003020E130514020E13EE
:010EA200222D
:10133000E4FDFCC3ED9FEE6480F8EC6480985010EF
:101340000079027BC7DBFED9FC0DBD00010C80E3F8
:01135000227A
:10130900E4FDFCC3ED9FEE6480F8EC648098501610
:101319000075420879017BF3DBFED9FCD542F90D52
:06132900BD00010C80DD97
:01132F00229B
:0E13B700C2A6D2A5C2A57F781213510213FE62
:0713F700D2A5C2A6D2A62276
:0713FE00D2A6D2A5C2A52270
:101351007E08AD061EED6014EF30E704D2A68002D0
:0C136100C2A6D2A5C2A5EF25E0FF80E6E1
:01136D00225D
:030000000213C523
:0C13C500787FE4F6D8FD7581420205F344
:10097400E709F608DFFA8046E709F208DFFA803E65
:1009840088828C83E709F0A3DFFA8032E309F60852
:10099400DFFA8078E309F208DFFA807088828C83BA
:1009A400E309F0A3DFFA806489828A83E0A3F6086E
:1009B400DFFA805889828A83E0A3F208DFFA804C48
:1009C40080D280FA80C680D4806980F2803380101F
:1009D40080A680EA809A80A880DA80E280CA803388
:1009E40089828A83ECFAE493A3C8C582C8CCC58300
:1009F400CCF0A3C8C582C8CCC583CCDFE9DEE780D0
:100A04000D89828A83E493A3F608DFF9ECFAA9F04E
:100A1400EDFB2289828A83ECFAE0A3C8C582C8CCA4
:100A2400C583CCF0A3C8C582C8CCC583CCDFEADEBD
:100A3400E880DB89828A83E493A3F208DFF980CC1F
:100A440088F0EF60010E4E60C388F0ED2402B40418
:100A54000050B9F582EB2402B4040050AF232345BF
:060A640082239009C47317
:100A6A00BB010CE58229F582E5833AF583E0225041
:100A7A0006E92582F8E622BBFE06E92582F8E2228B
:0D0A8A00E58229F582E5833AF583E49322A5
:100A9700C2D5EC30E709B2D5E4C39DFDE49CFCEE7A
:100AA70030E715B2D5E4C39FFFE49EFE120B17C3D0
:100AB700E49DFDE49CFC8003120B1730D507C3E4CB
:060AC7009FFFE49EFE22E9
:100ACD00BB010A89828A83E0F5F0A3E022500687F4
:100ADD00F009E71922BBFE07E3F5F009E3192289B6
:0B0AED00828A83E493F5F074019322E9
:100AF800BB010A89828A83F0E5F0A3F0225006F749
:0F0B080009A7F01922BBFE06F3E5F009F3192245
:0C13D100EE30E707C3E49FFFE49EFE221D
:100B1700BC000BBE0029EF8DF084FFADF022E4CCC2
:100B2700F875F008EF2FFFEE33FEEC33FCEE9DEC8B
:100B3700984005FCEE9DFE0FD5F0E9E4CEFD22EDD1
:100B4700F8F5F0EE8420D21CFEADF075F008EF2F1B
:100B5700FFED33FD4007985006D5F0F222C398FD0C
:050B67000FD5F0EA22A9
:00000001FF
